:020000040800F2
:10000000600D002005010008CF1C0008E71B000858
:10001000CD1C0008510C0008D51F0008000000008E
:10002000000000000000000000000000D31C0008D9
:10003000530C000800000000D11C0008D51C00086B
:100040001F0100081F0100081F0100081F01000810
:100050001F0100081F0100081F0100081F01000800
:100060001F0100081F0100081F0100081F010008F0
:100070001F0100081F0100081F0100081F010008E0
:100080001F0100081F0100081F0100081F010008D0
:100090001F0100081F0100081F0100081F010008C0
:1000A0001F0100081F0100081F0100081F010008B0
:1000B0001F0100081F0100081F0100081F010008A0
:1000C0001F0100081F0100081F0100081F01000890
:1000D0001F010008B91F0008C51F0008C91F00083C
:1000E0001F0100081F0100081F010008DFF810D0E1
:1000F00000F06CFB00480047ED2E0008AFF30080D5
:10010000600D00200648804706480047FEE7FEE7EE
:10011000FEE7FEE7FEE7FEE7FEE7FEE7FEE7FEE7B7
:10012000371D0008ED000008202A04DB203A21FAE0
:1001300002F00021704721FA02F3D040C2F1200200
:10014000914008431946704740EA01039B0703D0DA
:1001500009E008C9121F08C0042AFAD203E011F806
:10016000013B00F8013B521EF9D27047D2B201E0C8
:1001700000F8012B491EFBD270470022F6E710B5AC
:1001800013460A4604461946FFF7F0FF204610BD05
:1001900030B505462A460B4612F8010B13F8014B01
:1001A00008B1A042F8D01CB1002802D06D1CF1E7C4
:1001B000284630BD421C10F8011B0029FBD1801AD3
:1001C000704700000FB400B58DB010A909900B90D6
:1001D00000914FF0FF300A9000200C9005480690E7
:1001E000054807906A4609A80F9900F009F90DB073
:1001F0005DF814FB1D0400083B0400082DE9FF5FB7
:100200001D464FF0FF3BD5E9014691465F464FF052
:100210000008A9697F1C01988847296A8246884797
:100220000028F6D1BAF1FF3F0CD024F4C064002EB0
:1002300019DD600614D5BAF12B0F09D0BAF12D0FD4
:100240000ED103E0584604B0BDE8F09F44F480644A
:10025000A9697F1C01988847761E8246002E02DD20
:10026000BAF1300F03D0B9F1000F26D032E0A969FE
:10027000761E44F400747F1C019888478246002E45
:1002800005DDBAF1780F06D0BAF1580F03D0B9F1F5
:10029000000F10D01EE0B9F1000F02D0B9F1100F1D
:1002A00018D1A969761E24F400747F1C0198884730
:1002B0008246102002E0082000E00A20814609E082
:1002C00008FB0908A969761E44F400747F1C019894
:1002D00088478246002E05DD4946504600F07BF8EF
:1002E0000028EDDAE96901988847A00502D46FF08B
:1002F0000100A8E7E00725D1600613D5600502D507
:10030000C8F1000000E0404629680A1D2A6009681B
:10031000220501D5087015E0220701D5088011E0FB
:1003200008600FE02868011D29600068210502D5DA
:1003300080F8008006E0210702D5A0F8008001E0E7
:10034000C0F8008038467EE730B50B4601460020F5
:100350002022012409E021FA02F59D4205D303FA87
:1003600002F5491B04FA02F52844151EA2F1010208
:10037000F1DC30BD2DE9F05F0546002092469B463A
:1003800088460646814640241BE0284641464746AB
:100390002246FFF7C9FE53465A46C01A914110D370
:1003A00011461846224600F023FA2D1A67EB010881
:1003B0004F4622460120002100F01AFA17EB0009EF
:1003C0004E41201EA4F10104DFDC484631462A4696
:1003D0004346BDE8F09F3A2800D2303820F0200292
:1003E000412A01D3A2F13700884201D34FF0FF30F8
:1003F0007047000002681144137801601846704786
:10040000D160044951610449116200211161114612
:1004100000F014BAF503000833080008426842B13E
:10042000016811F8013B23B1521EC0E900121846C1
:1004300070470121C160881E704742685AB1C36885
:10044000016843B983688B4205D0491E521CC0E93C
:100450000012002070474FF0FF3070472DE9FE4F2B
:10046000804681EA0300C00F0C46009021F0004155
:1004700023F00045B8EB0200A94105D240462146D1
:1004800090461C460B46024623F00040104347D0DE
:10049000270DC7F30A00C3F30A510290401A0190D6
:1004A00040286BDAC3F3130040F4801B0098924697
:1004B00020B10023D2EB030A63EB0B0B01985946E2
:1004C000C0F14002504600F093F906460D465046F2
:1004D0005946019A00F09BF910EB08006141002495
:1004E00087EA115284EAE7731A4340D0009A62B354
:1004F000019A012A4FEA075215DC001B61EB020149
:100500004FF0004202EA0752CDE90042001C41F5DB
:10051000801132462B4600F038FB03B0BDE8F08F67
:1005200040462146F9E7001B61EB0201001C41F542
:10053000801300185B412018A2F5001747EB030158
:1005400040EAD570B6196D4111E06D084FEA3606E4
:1005500045EAC0754FEA0752001B61EB0201001C1F
:1005600041F5801149084FEA3000001951413246E7
:100570002B4603B0BDE8F04F00F0F8BA0098012216
:1005800040000023D0EB020263EBE07300982146A9
:100590004FEAE074B8EB000061EB0401E9E783F097
:1005A00000435BE781F0004158E72DE9FE4F81EA07
:1005B000030404F0004421F0004100944FF0000BCC
:1005C00023F0004350EA01045ED052EA03045BD0FA
:1005D000C3F30A54C1F30A552C44A4F2F334019432
:1005E000A0FB0254C1F3130141F48011C3F31303C0
:1005F00043F4801301FB024400FB034E840A970A74
:1006000044EA815447EA8357A4FB076802958D0AA0
:1006100005FB07854FEA932C04FB0C542705029D2C
:100620004FEA065847EA1637B5EB08056EEB070C9C
:10063000870E920E47EA811742EA8312A7FB020156
:10064000B6EB0B0164EB00042B0D43EA0C335E1890
:1006500044EB1C50DA465146E7FB0201C5F3130494
:100660004FEA0B3343EA14534FEA0432019C43EA46
:100670000603A4F10C040294009CCDE900B400F040
:1006800084FA03B0BDE8F08F00200146F9E72DE9B8
:10069000F04D81EA030404F0004B21F000451446BC
:1006A0004FF0000A23F0004150EA050220D054EA3E
:1006B00001021DD0C5F30A570246C5F31303C1F367
:1006C0001300C1F30A5640F4801543F48013A7EBDE
:1006D0000608101BD64608F2FD3873EB050002D35E
:1006E00008F1010801E092185B41B8F1000F03DA4C
:1006F00000200146BDE8F08D00204FF48011064631
:1007000084460EE0171B73EB050705D3121B63EB42
:10071000050306434CEA010C49084FEA30009218E1
:100720005B4150EA0107EDD152EA030012D082EAA0
:10073000040083EA0501084305D0101BAB4106D233
:100740000122002306E000224FF0004302E06FF098
:10075000010253101AEB06004CEB085110EB0A0093
:1007600041EB0B01BDE8F04D00F000BAC1F30A52B5
:10077000C1F3130140F2FF3341F480119A4202DACF
:1007800000200146704740F233439A42A2F23342BE
:1007900002DC5242FFF7C8BC00F02AB830B5041E94
:1007A00071F1000404DB4FF00044404264EB0101AE
:1007B000141E73F1000405DB1C464FF00043524247
:1007C00063EB0403994208BF904230BD064C074DCD
:1007D00006E0E06840F0010394E807009847103411
:1007E000AC42F6D3FFF786FC4035000860350008C0
:1007F000202A04DB203A00FA02F1002070479140E1
:10080000C2F1200320FA03F3194390407047202AD5
:1008100006DBCB17203A41FA02F043EAE07306E028
:1008200041FA02F3D040C2F1200291400843194638
:100830007047C0B24FF4F05100F0F6B92DE9F34F14
:100840008BB04FF0000801F10C000C464FF0010B8B
:1008500046460DF1080A019062690121019890470E
:10086000051E2DD0252D2CD0216A8847C0B1626984
:10087000012101989047216A88470028F7D1411E3D
:1008800062690198904700E0761CA1690B9888473F
:10089000216A88470028F7D1E1690B988847DBE790
:1008A000A1690B9888470746A84201D1761CD3E777
:1008B000E1690B9888477F1C02D1B8F1000F6FD017
:1008C00047E1002762693D463946019890472A284A
:1008D00004D162690121019890470125DFF88892CF
:1008E0006269012101989047A0F130010A290AD2DA
:1008F0004F45E5DC07EB870100EB4107303FDFD4D4
:1009000045F01005ECE7E90601D46FF000476C28CC
:100910000AD04C2814D0682815D06A280DD0742825
:100920001CD07A281AD01DE06269012101989047F5
:100930006C2802D045F0040514E045F002050DE0F6
:1009400045F020050AE06269012101989047682876
:1009500002D045F0080505E045F400656269012113
:1009600001989047C4E9015765283DD019DC582803
:100970007AD00CDC452837D004DC252826D0412845
:1009800031D131E046282FD047282CD12CE05B28EC
:1009900077D0612828D063287CD0642823D15AE0FE
:1009A000D1E06F2848D008DC66281DD067281BD00E
:1009B000692821D06E2816D127E0702845D07328E9
:1009C00068D0752847D078280DD14DE0A1690B98E3
:1009D0008847054625283FF469AFE1690B988847A9
:1009E0006D1C3FF46AAFB4E023466A466FF0010025
:1009F0000B99AFF300809FE045F040006060A807CE
:100A000023464FF0000236D43EE0E8077FF447AFBC
:100A10002068011D21600068290501D506701BE7CB
:100A2000290701D5068017E7A90703D5F117C0E903
:100A3000006111E706600FE745F040006060A8071D
:100A400023464FF0080216D41EE040F60E0125EAB8
:100A50000100606016E045F040006060A807234692
:100A60004FF00A0207D40FE045F040006060A8078D
:100A700008D5234610226FF001000B99AFF30080D8
:100A80005AE007E0234610226FF001000B99FFF7B0
:100A9000B5FB51E04FF000094F464B46632802D0AA
:100AA0005B2807D041E02079C00601D40120A06076
:100AB00001273AE062690121019890475E2805D13B
:100AC0004FF001096269494601989047216939B997
:100AD00000210A46534643F82120491C0829FADB25
:100AE000B0B3216969B9C11700EBD16253110AEBA8
:100AF000830122F01F02821A01200B6890400343F9
:100B00000B6062690121019890475D28E8D1B9F135
:100B1000000F09D00020514651F82020D24341F85F
:100B20002020401C0828F7DB02AB224600976FF01C
:100B300001000B99AFF3008000280CDA401C08D1AB
:100B4000BBF1000F05D04FF0FF300DB0BDE8F08FC6
:100B5000FFE74046F9E7E90701D108F1010806443B
:100B60004FF0000B78E60000CCCCCC0C10B5141E76
:100B700073F1000408DA401C41F1000192185B4156
:100B80001A4301D120F0010010BD2DE9F04D92462D
:100B90009B4611B1B1FA81F202E0B0FA80F2203244
:100BA0009046FFF725FE04460F4640EA0A0041EA58
:100BB0000B0153465A46084313D0114653EA01002D
:100BC00019D0C8F140025046FFF7AEFA05460E466E
:100BD000504659464246FFF70BFE084305D0012018
:100BE00004E020463946BDE8F08D0020054346EA82
:100BF000E0762C4337430A986305E40AA0EB08002B
:100C00000022FD0A44EA47540A3002D5002001467A
:100C1000E9E7010510196941DDE908450019694155
:100C2000BDE8F04DA2E700007F2801D9002208E0CE
:100C3000064A02EB5002C007127800D1120902F0F6
:100C40000F0201209040084070470000EA3300087E
:100C5000FEE7704738B5114900208DF8000009689B
:100C60000968C943890614D40D4C2188B1F5007F69
:100C700000D320804FF47A7301226946074800F0C0
:100C8000A7FE064A208848329DF800101154401CE7
:100C90002080024800F09AFC38BD0000440100208A
:100CA0002000002072B6FEE710B590F82110002257
:100CB000022905D00421816380F82020012010BD85
:100CC00001680B6823F00E030B6001680B6823F0CA
:100CD00001030B6090F84030C46B012101FA03F36B
:100CE000636080F8211080F82020104610BD0000BD
:100CF00010B590F821100024022903D0042181634B
:100D000001243DE001680A6822F00E020A600168D1
:100D10000A6822F001020A601A4A0168914201D170
:100D2000012121E0174A1432914201D110211BE028
:100D3000144A2832914201D1891515E0114A3C32FA
:100D4000914201D189140FE00E4A5032914202D1F2
:100D50004FF4803108E00B4A6432914202D14FF4E3
:100D6000801101E04FF08071064A083A516001217C
:100D700080F82110002180F82010416B01B18847D4
:100D8000204610BD0800024070B5044600F0FEF891
:100D90000546601C02D004480078044400F0F6F8D0
:100DA000401BA042FAD370BD100000202DE9F84F7F
:100DB000DFF8B8910024A9F1040B23460F2709F1AD
:100DC000040AABF1040EC9E00125A5402A40AA425D
:100DD0007DD1674ED1F804C0ACEB0608B44532D0E3
:100DE00014DCBCF1030F3AD009DCBCF1000F2AD0AF
:100DF000BCF1010F1CD0BCF1020F31D11DE0BCF1E0
:100E0000110F17D0BCF1120F2AD119E0B8F5881FC5
:100E100019D006DCB8F5803F15D0B8F5801F1FD17A
:100E200011E0B8F5001F0ED0B8F5041F18D10AE084
:100E3000CB6815E0CB681B1D12E0CB6808330FE0D0
:100E4000CB680C330CE08B682BB1012B4FF00803FF
:100E500003D0456104E0042302E0056100E00023C3
:100E6000FF2A01D8064601E000F104064FEA840596
:100E700001D9A5F12005D6F8008007FA05FC28EA7B
:100E80000C0803FA05F548EA0508C6F800804D6825
:100E9000ED0062D5374DAE6946F00106AE61AD6931
:100EA00024F0030605F001050095334D06EB050C13
:100EB000DCF80850A607360F07FA06F825EA0805F9
:100EC000DFF8B880404503D14FF0000817E044E058
:100ED000DFF8AC80404502D14FF001080FE0DFF8A9
:100EE000A480404502D14FF0020808E0DFF8988066
:100EF000404502D14FF0030801E04FF0040808FA22
:100F000006F848EA0508CCF808804D68D9F8006072
:100F1000ED024D4601D5164300E096432E604D6824
:100F2000DAF80060AD02554601D5164300E096435D
:100F30002E604D68DBF80060AD035D4601D51643B9
:100F400000E096432E604D68DEF80060ED037546C4
:100F500001D5164300E096432E60641C0D682A46B6
:100F6000E5407FF431AFBDE8F88F00000804014090
:100F70000000111000100240000001400008014074
:100F8000000C01400010014000140140014880683D
:100F90007047000010000020024881680278114468
:100FA0008160704710000020074810B5016841F0CB
:100FB00010010160032000F075F80F2000F006F822
:100FC00000F024F8002010BD0020024070B50D4D47
:100FD00004464FF47A712878B1FBF0F00A490968A9
:100FE000B1FBF0F000F0DCFA48B9102C07D2002277
:100FF0002146501E00F036F800206C6070BD0120C4
:1010000070BD0000100000201C0000200C4808B536
:10101000816941F001018161816901F00101009163
:10102000C16941F08051C161C06900F080500090F9
:101030000448416821F0E06141F00071416008BD61
:101040000010024000000140002809DB00F01F02F0
:10105000012191404009800000F1E020C0F800111A
:1010600070470000F0B40E4B1B680C46C3F302231C
:10107000C3F10705042D00D90425191D072901D244
:10108000002300E0DB1E012606FA05F1491E21407F
:1010900099409E40761E16403143F0BC00F0C0BF20
:1010A0000CED00E0064900F0070208684FF6FF0368
:1010B000184040EA0220034A1043086070470000CD
:1010C0000CED00E00000FA052DE9F0470F460500A1
:1010D00061D0434E306800F00700B84209D2306852
:1010E00020F0070038433060306800F00700B84255
:1010F00051D128683B4C810712D5400703D5606861
:1011000040F4E06060602878000703D5606840F430
:10111000605060606068A96820F0F000084360607B
:101120002878C00728D06868012810D021680228D4
:1011300010D0890700292EDA616821F003010143EC
:101140006160FFF723FF804641F288390DE0216896
:101150008903EFE78901EDE7FFF718FFA0EB08012E
:10116000494502D90320BDE8F0876068696800F04E
:101170000C00B0EB810FEFD1306800F00700B842EF
:101180000BD9306820F0070038433060306800F039
:101190000700B84201D00120E5E72878400705D5CF
:1011A0006068E96820F4E060084360602878000720
:1011B00006D56068296920F4605040EAC10060608B
:1011C00000F038F86168084AC1F30311515CC84067
:1011D0000649086006480068FFF7F8FE0020C2E7ED
:1011E0000020024000100240CE3300081C00002006
:1011F000140000200448054900684968044AC1F306
:101200000221515CC84070471C00002000100240C1
:10121000DE3300080448054900684968044AC1F300
:10122000C221515CC84070471C00002000100240E1
:10123000DE3300080E4A51680E4801F00C03042BFF
:1012400011D0082B0FD10C48C1F38343C903C05CF4
:101250000AD55168084AC1F34041921E515C054AC3
:101260005043B0FBF1F07047044948437047000019
:101270000010024000127A00BE33000800093D0051
:101280002DE9F84F040070D02078C04DC00749D038
:101290006868C0F38100012807D06868C0F3810046
:1012A000022809D16868C00306D52868800339D5AB
:1012B00060680028E7D035E06068B0F5803F0BD06B
:1012C00010B1B0F5A02F11D0286820F4803028602C
:1012D000286820F4802002E0286840F480302860EC
:1012E000606890B1FFF752FE06460AE0286840F4B5
:1012F00080202860F0E700BFFFF748FE801B6428CD
:1013000073D828688003F7D50CE0FFF73FFE064648
:1013100005E000BFFFF73AFE801B6428F0D828687C
:101320008003F7D420789A4E80074FF001094FF0E0
:10133000000839D5686810F00C0F07D06868C0F352
:101340008100022809D16868C00306D42868800794
:1013500014D52069012808D110E02069B0B1C6F881
:101360000090FFF713FE074605E00AE1FFF70EFEC7
:10137000C01B0228C4D828688007F7D5286861698F
:1013800020F0F80040EAC10028600DE0C6F80080B7
:10139000FFF7FCFD074604E0FFF7F8FDC01B02283D
:1013A00023D828688007F7D4207800072CD57948FF
:1013B000A169D9B1C0F80090FFF7E8FD074604E045
:1013C000FFF7E4FDC01B02280FD8686A8007F7D535
:1013D00071484FF4FA510068B0FBF1F0009000BF83
:1013E0000098411E0091FAD20EE080E0C0F8008023
:1013F000FFF7CCFD074604E0FFF7C8FDC01B02283D
:1014000075D8686A8007F7D42078400760D5E86906
:101410000027C00008D4E86940F08050E861E8691E
:10142000012700F0805000905C480168C90513D482
:101430000168834641F480710160FFF7A7FD824691
:1014400006E000BFFFF7A2FDA0EB0A0064284ED81B
:10145000DBF80000C005F5D5E06801280AD008B126
:10146000052813D0286A20F001002862286A20F09D
:10147000040002E0286A40F001002862E06841F2BE
:10148000883B98B1FFF782FD82460BE0286A40F066
:1014900004002862EEE700BFFFF778FDA0EB0A0129
:1014A00059455AD8286A8007F6D50CE0FFF76EFD3B
:1014B000824605E0FFF76AFDA0EB0A0159454CD8CA
:1014C000286A8007F6D41FB1E86920F08050E861EF
:1014D000E06988B36968C1F38101022944D0022818
:1014E000C6F8608004D0FFF751FD044638E034E0D0
:1014F000FFF74CFD074604E0FFF748FDC01B02283C
:101500002BD828688001F7D4206AB0F5803F05D138
:101510006868A16820F4003008436860D4E90801D5
:101520000843696821F4741108436860C6F8609044
:10153000FFF72CFD044606E025E000BFFFF726FD7F
:10154000001B022809D828688001F7D51BE000BFDE
:10155000FFF71CFD001B022802D90320BDE8F88F0D
:1015600028688001F4D40EE00128F7D06868226A68
:1015700000F48031914204D1616A00F47010884215
:1015800001D00120EAE70020E8E700000010024057
:1015900000004242800442421C00002000700040D3
:1015A00010B5401EB0F1807F01D3012010BD4FF077
:1015B000E02460610F21601700F032FD0020A0617F
:1015C00007202061002010BD70477047F8B5016802
:1015D00004460868CA684B6910F00F0F4FF0000509
:1015E00059D003F0010602F49077374365D0C10764
:1015F00005D0D10503D5616C41F00101616441075B
:1016000005D5D90703D0616C41F0020161648107FF
:1016100005D5D90703D0616C41F00401616401076D
:1016200007D502F02001314303D0616C41F008017D
:101630006164616C00293AD0800604D5900602D519
:10164000204600F0A8FB20684069616CC0F3801060
:10165000090700D460B3204600F076FB206840699B
:10166000400621D52068143050E8001F21F04001C9
:1016700040E80012002AF5D1E06BA8B16D49416342
:10168000E06BFFF735FB002811D0E06B416B01B038
:10169000BDE8F040084783060FD593060DD52046D8
:1016A000BDE8F84000F077BB2046FFF78EFFF8BD9D
:1016B0002046FFF78AFF6564F8BD266B2023012EC4
:1016C0007CD1C6067AD5D60678D5086848680090D9
:1016D00048694FF00206400640D5E16B0868406853
:1016E0000004000CE8D0A28D8242E5D9E08588692B
:1016F00020282DD020680C3050E8001F21F4807184
:1017000040E80012002AF5D12068143050E8001F8C
:1017100021F0010140E80012002AF5D120681430C0
:1017200050E8001F21F0400140E80012002AF5D1E6
:1017300084F84230256320680C3050E8001F21F007
:10174000100140E80012002AF5D1E06BFFF7ACFA77
:101750006663A08DE18D401A81B22AE0A08DE18DF3
:10176000401A81B2E08D0028A6D00029A4D02268BA
:101770000C3252E8000F20F4907042E80007002F6E
:10178000F5D12068143050E8002F22F0010240E823
:101790000027002FF5D184F84230256320680C30F3
:1017A00050E8002F22F0100240E80023002BF5D172
:1017B00066632046FFF708FFF8BDFFE705062BD557
:1017C000150629D594F841002128F5D1A068B0F577
:1017D000805F01D12069B0B1206A411C216221687B
:1017E00000784860E08C401E0004000CE084E3D1E7
:1017F0002068C16821F08001C1602068C16841F0A3
:101800004001C160D8E7206A0088C0F30800486042
:10181000206A801C2062E5E74006CDD55006CBD576
:10182000CA68204622F04002CA6084F8413000F0C5
:10183000D9F9C1E7391D000870B5040004D094F847
:101840004100002510B106E0012070BD84F8405031
:10185000204600F023F8242084F841002068C16865
:1018600021F40051C160204600F0F6FA20680169B9
:1018700021F4904101612068416921F02A01416110
:101880002068C16841F40051C1606564202084F87B
:10189000410084F842006563002070BDF0B585B05A
:1018A000002400940194029403940368424F0220A0
:1018B00042490322424D4602BB4225D18B6943F483
:1018C00080438B618B6903F4804304938B6943F0FD
:1018D00004038B618969039201F004010491010200
:1018E000CDE9001069462846FFF760FACDE90064AB
:1018F000694628460294FFF759FA00220221252062
:10190000FFF7B0FB252028E02E4FBB4229D1CB6941
:1019100043F40033CB61CB6903F4003304938B6948
:1019200043F004038B618969039201F0040104917F
:101930000421CDE9001069462846FFF737FA082050
:10194000CDE90004694628460294FFF72FFA0022E9
:1019500001212620FFF786FB2620FFF775FB05B047
:10196000F0BD194DAB42FAD1CB6943F48023CB6172
:10197000CB6903F4802304938B6943F008038B61E4
:101980008969124D01F00801CDE90321CDE900601C
:1019900069462846FFF70AFAE814CDE900046946CB
:1019A00028460294FFF702FA002211462720FFF78B
:1019B00059FB2720D1E70000003801400010024009
:1019C000000801400044004000480040000C014075
:1019D0002DE9F84F044690F842009A4616460D4607
:1019E000202802D00220BDE8F88FB5B1AEB10020AA
:1019F0006064222184F842102063FFF7C7FAA685AD
:101A00008146E685A0684FF480582027404501D1E3
:101A1000206920B12E46002529E00120E3E70026B9
:101A200025E04B46002220212046CDF800A000F002
:101A30008AFA18B184F842700320D4E726B1A0686E
:101A400040451AD038B108E020684068C0F308006B
:101A500025F8020B08E0206978B12068406800F0A2
:101A60007F0000BF06F8010BE08D401EE085E08D91
:101A70000028D6D184F84270B5E720684068F1E7C5
:101A800090F84230202B01D00220704721B11AB1CA
:101A90000023036300F03CBA012070471CB51749CE
:101AA00088422AD1322216491448FFF7E9FF154926
:101AB000081F031FCDE900011A1F13A11048FEF7EC
:101AC00081FB04280ED014A000F086FA32210C48C5
:101AD000FEF753FB02B00A22BDE810400849074850
:101AE000FFF7CEBF07480C3841680091D0E90212D9
:101AF00003680CA000F070FAE8E71CBDFC000020B1
:101B0000380000200C00002025642E2531642C258F
:101B1000642E2531640000006572726F72210D0A17
:101B200000000000CEC2B6C83A2025642E2564A16C
:101B3000E3432C20CAAAB6C83A2025642E25642582
:101B4000250D0A002DE9F843044690F84100984617
:101B500016460D46202802D00220BDE8F88385B144
:101B60007EB100206064212084F84100FFF70EFA66
:101B7000A6848146E684A0682027B0F5805F02D065
:101B800003E00120E9E7206910B12E4600250EE0B0
:101B900000260CE08021204600F0D5F9A8B9C6B196
:101BA00016F8010B21684860E08C401EE084E08C50
:101BB0004B464FF00002CDF800800028EAD14FF0EC
:101BC0004001204600F0BFF940B184F84170032085
:101BD000C3E735F8020BC0F30800E3E784F841706F
:101BE0000020BAE77047FEE70D4808B5816941F06B
:101BF00020018161816901F020010091816941F03A
:101C000004018161816901F004010091816941F061
:101C100008018161806900F00800009008BD0000A3
:101C2000001002400C4810B50A4901604FF41651EB
:101C30004160002181600C22C160C0E90412816111
:101C4000C161FFF7F9FD002803D0BDE81040FFF7A0
:101C500029B810BD003801406C0000200C4810B5B8
:101C60000A4901604FF4E1314160002181600C229A
:101C7000C160C0E904128161C161FFF7DDFD002888
:101C800003D0BDE81040FFF70DB810BD0044004080
:101C9000B40000200C4810B50A4901604FF41651F9
:101CA0004160002181600C22C160C0E904128161A1
:101CB000C161FFF7C1FD002803D0BDE81040FEF769
:101CC000F1BF10BD00480040FC000020FEE7FEE729
:101CD00070477047FFF760B930B58FB0282168466C
:101CE000FEF74BFA14210AA8FEF747FA012108046F
:101CF000CDE900100024029402250491CDE907509B
:101D00004FF4E01009906846FFF7BAFA08B172B6CE
:101D1000FEE70F20CDE90A054FF48060CDE90C40C5
:101D200002210AA80E94FFF7CFF9002801D072B65D
:101D3000FEE70FB030BD704710B5406A0021C18585
:101D4000C184FFF742FC10BD01680C3151E8002F3F
:101D500022F4907241E80023002BF5D10168143180
:101D600051E8002F22F0010241E80023002BF5D1B9
:101D7000016B012909D101680C3151E8002F22F0D3
:101D8000100241E80023002BF5D1202180F84210F9
:101D900000210163704708B590F84210222901D054
:101DA000022008BD82684FF480539A4201D1016934
:101DB00021B1816A9A421BD04AB10AE00268816A65
:101DC0005268C2F308020A80816A891C08E002692D
:101DD00072B10268526802F07F020A70816A491C7F
:101DE0008162C18D491E0904090CC18503D01BE025
:101DF00002685268F1E70168CA6822F02002CA60EE
:101E00000168CA6822F48072CA6001684A6922F0D7
:101E100001024A61202180F8421000214163026BD7
:101E2000012A03D0FFF73AFE002008BD01630168D4
:101E30000C3151E8002F22F0100241E80023002B62
:101E4000F5D101680A68D20602D50A68496800918E
:101E5000818DFFF7B9FBE7E770B5044600680169BB
:101E6000E26821F44051114301612169A0680843EF
:101E7000616908432168CA6841F20C639A430243CE
:101E8000CA6020684169A26921F44071114341612F
:101E90001E492068884202D1FFF7BCF901E0FFF734
:101EA000A9F900EBC00101EB001260686421800019
:101EB000B2FBF0F3B3FBF1F36FF018067343B2FB20
:101EC000F0F5B2FBF0F605EB8305322303EB0515C5
:101ED000B5FBF1F5B6FBF1F605F0F00505EB0615DF
:101EE000B2FBF0F6B2FBF0F0B0FBF1F06FF01802CD
:101EF000504306EB800003EB0010B0FBF1F02168CB
:101F000000F00F002844886070BD000000380140D8
:101F100081628285C28500214164222180F84210BD
:101F2000016921B10168CA6842F48072CA6001681F
:101F30004A6942F001024A610068C16841F020012B
:101F4000C160002070472DE9F843984617460D46BA
:101F50000446089E24E0701C22D0FFF717F8A0EB7F
:101F60000800B0421AD8CEB12068C168490717D519
:101F7000802D15D0402D13D00168C94309070FD417
:101F800001680025406800902046FFF7DDFE08202C
:101F9000606484F840500120BDE8F8830320FBE72B
:101FA0002068006835EA000004D00020B842D2D092
:101FB0000020F1E70120F9E70148FFF707BB000027
:101FC0006C000020FEF746BE0148FFF7FFBA000094
:101FD000FC000020FEE700000FB4054B10B503A97C
:101FE000044A029800F0FEF810BC5DF814FB0000F3
:101FF000D52E0008340000200FB4084B10B504A9FA
:1020000002AA039800F0EEF8044602A9002000F0AE
:102010006CFC204610BC5DF814FB0000EB280008A7
:102020000907090E002804DB00F1E02080F8001405
:10203000704700F00F0000F1E02080F8141D704799
:1020400002E008C8121F08C1002AFAD17047704781
:10205000002001E001C1121F002AFBD170470000DF
:102060002DE9FF5F82B00021DDE90430020DDDF8CB
:1020700040B0034318D044F61050A2F2FF3242435E
:102080001514119801281FD0A5EB0B00401C5FEA26
:10209000000A4FF000064E4FDFF83891B046504628
:1020A00015D5CAF1000413E0119801244AA30128B0
:1020B00001D16FEA0B010298119AC0E90031C0E921
:1020C000024206B0BDE8F09FCBF10000DFE7044616
:1020D0000021404A491842EB0450CDE9001012E0BB
:1020E000E00707D032463B4640464946FEF75DFAD8
:1020F0008046894632463B4610461946FEF755FA59
:1021000006460F466410002CEAD1DDE90401DDE942
:102110000023BAF1000F06DAFEF747FA42464B46B3
:10212000FEF743FA05E0FEF7B2FA42464B46FEF7E9
:10213000AEFA04460E460022284BFEF72FFB03D8CA
:102140004FF0FF30014607E00022254B2046314684
:10215000FEF784F9FEF70AFB102409E0002C0ADBE5
:102160000A220023FEF706F9039B30321A55641E3B
:1021700050EA0102F2D1641C039AC4F11103144421
:10218000119A012A03D0012208430DD10AE0084325
:1021900004D000204FF0110B119072E7A3EB0B0558
:1021A0006D1E0DE05B4504DD4FF0000205F10105F9
:1021B00004E003DA4FF00002A5F10105002AECD09B
:1021C00002981199C0E90231C0E9004579E70000A1
:1021D000000014400000F03F300000000000F04319
:1021E0000000E03F2DE9FF4F95B09A46884606462D
:1021F0000025EEE1252877D100242746F94A012160
:10220000039400E0044316F8013F203B01FA03F079
:102210001042F7D130782A2811D06FF02F03307890
:10222000A0F13002092A16D8039A44F0020402EB06
:10223000820203EB42021044761C0390EFE758F849
:10224000042B0392002A03DA504244F40054039012
:1022500044F00204761C30782E2816D116F8010FAF
:1022600044F004042A280DD06FF02F023078A0F13A
:102270003003092B09D807EB870302EB4303C71888
:10228000761CF3E758F8047B761C30786C280FD066
:1022900006DC4C2817D068280DD06A2814D104E039
:1022A000742810D07A280FD10DE044F400140AE00D
:1022B00044F4801401E044F440147278824202D164
:1022C00004F58014761C761C307866280BD013DC5D
:1022D000582877D009DC002875D04528F6D0462844
:1022E000F4D047281AD193E118E0632835D0642848
:1022F00079D0652812D18BE1702873D008DC67286B
:10230000F1D069286FD06E280DD06F2806D1ACE0CF
:1023100073282CD0752874D0782853D0524617993A
:1023200090476D1C54E1C4F30250022809D00328E1
:102330000DD0D8F8001004280DD00D6008F1040865
:1023400046E1D8F80010EA17C1E90052F6E7D8F8DC
:1023500000100D80F2E70D70F0E718F8041B8DF8FF
:10236000001000208DF80100EB46012003E058F832
:1023700004BB4FF0FF3061074FF0000102D40DE0C5
:1023800009F101018946B9420FDA8145F8DB1BF8F2
:1023900009100029F4D108E009F1010189468142C0
:1023A000FADB1BF809100029F6D103985346A0EB7D
:1023B000090721463846179A00F080FA284400EBB6
:1023C000090507E044E008E10DE01BF8010B524667
:1023D00017999047B9F10109F7D25346214638467B
:1023E000179AF2E039E00A21C4F302524FF0000BD1
:1023F0000091022A06D058F8040BC117032A09D00D
:102400000AE023E008F1070020F00702F2E80201E9
:10241000904605E000B2C117042A01D140B2C117AD
:10242000002906DA0A460021404261EB02012D2212
:1024300002E0220504D52B228DF80420012203E0BE
:10244000E20701D02022F7E7914657E00A2100E099
:1024500010214FF0000B00910BE010214FF0000B0A
:1024600044F004040827009103E008204FF0000B1B
:102470000090C4F30252022A05D058F8040B002140
:10248000032A08D008E008F1070020F00702F2E86C
:102490000201904603E080B2042A00D1C0B24FF09E
:1024A000000922072AD53278702A07D0DDF800C04B
:1024B0008CF0100C5CEA0B0C05D00EE040228DF87D
:1024C0000420012208E050EA010306D030238DF8F1
:1024D00004308DF8052002229146009B83F008030A
:1024E00053EA0B030AD150EA010201D1620705D574
:1024F00030228DF804204FF001097F1E3278582ACF
:1025000004D039A20C920CAA02920BE03BA2F9E78C
:102510005B46009AFDF72EFF0C9B9B5C029A521EB5
:102520000292137050EA0102F2D1029804A9081A2B
:1025300000F1200B600702D524F4803400E001276D
:102540005F4502DDA7EB0B0000E0002000EB0B0174
:10255000009003984944401A0390E00306D4534680
:102560002146179A039800F0A9F90544002706E0D0
:1025700001A85246C05D179990476D1C7F1C4F45BE
:10258000F6DBE0030CD553462146179A039800F07A
:1025900095F9054404E030205246179990476D1C88
:1025A0000099481E00900029F5DC08E00298029985
:1025B00052460078491C0291179990476D1CBBF157
:1025C0000001ABF1010BF1DC5BE100F065F90544C2
:1025D000761C307800287FF40DAE19B02846BDE88F
:1025E000F08F00000928010030313233343536379E
:1025F000383961626364656600000000303132334F
:1026000034353637383941424344454600000000EE
:10261000600700D4062708F1070020F00700F0E863
:102620000223804603F0004C5FEA0C0001D097A023
:1026300009E0200501D596A005E0E00701D095A0AE
:1026400001E0AFF24C001390307823F0004365288E
:102650000CD006DC452809D046281DD047287FD15C
:102660003BE0662818D067287AD136E00021112F88
:1026700001DB112000E0781CCDE9000104A90CA8C1
:10268000FFF7EEFCDDE90D010C9A4FF0000B07F1AE
:102690000109109200914EE04FF000400097CDE903
:1026A000011004A90CA8FFF7DBFCDDE90D020C9B6F
:1026B0000F994FF0000B91461093009211B9791CBD
:1026C00000EB0109B7EB090003D4C0F1FF3B07F1B0
:1026D0000109A9EB0700019042E0012F00DA012770
:1026E0000021112F01DD112000E03846CDE9000165
:1026F00004A90CA8FFF7B4FCDDE90D010C9A0091C8
:102700004FF0000BB946109221070FD4009A4A45AA
:1027100003DA914601E0A9F10109B9F1010F05DDE4
:10272000109AA9F10101515C3029F4D0B84202DAC3
:1027300010F1040F03DA0121CDE9011010E00028A7
:1027400003DC8344A9EB000102E0411C494500DDA4
:102750008946A0EB0B00401C01904FF00040029016
:10276000200705D40198484502DB4FF0FF30019067
:1027700000208DF84B0002980DF14B07B0F1004F8F
:1027800025D002200C902B200D90029800280CDA06
:10279000404202902D200D9007E00A210298FDF79B
:1027A000D3FD3031029007F8011D0C99481E0C90A2
:1027B0000029F2DC02980028EFD1791E0D980870EC
:1027C000307800F0200040F0450007F8020D11A815
:1027D000C01BC01D02901398007800B1012000EBCF
:1027E0000901019801EBE071029801440398401A35
:1027F000401E0390E00306D453462146179A0398DF
:1028000000F05CF805441398007818B15246179907
:1028100090476D1CE00323D553462146179A039831
:1028200000F04CF805441BE0BBF1000F07DB0098FB
:10283000584504DD1098179910F80B0001E017991E
:1028400030205246904701980BF1010B401E05F1D4
:102850000105019004D12E205246179990476D1C16
:10286000B9F10001A9F10109DEDC05E017F8010B5F
:102870005246179990476D1C0299481E02900029F4
:10288000F4DC53462146179A03989EE62D0000007B
:102890002B000000200000002DE9F0410446002537
:1028A0001E461746880404D405E039462020B04768
:1028B0006D1C641EF9D52846BDE8F0812DE9F04174
:1028C000044600251E469046C80301D5302700E087
:1028D0002027880404D505E041463846B0476D1CE2
:1028E000641EF9D52846BDE8F0810A68531C0B60C8
:1028F0001070704701A102A000F01CBA4F4B0000FD
:1029000041540D0A0000000010B54FF40071034857
:10291000FDF733FC02490020088010BD8C01002027
:102920002000002000B591B00B46024604A1684685
:10293000FFF762FB09A1684600F0FCF911B000BD89
:1029400041542B43495053544152543D2254435017
:10295000222C222573222C25730D0A00434F4E4E44
:1029600045435400054910B50A8805491446FDF74A
:10297000EBFBFFF7C9FF204610BD00002000002040
:102980008C010020014902A000F0D4B904290008FC
:1029900041542B434950434C4F53450D0A0000000E
:1029A00010B509A109A000F0C5F904464FF49670CE
:1029B000FEF7EAF909A10AA000F0BCF9204410F0E2
:1029C000FF0000D0012010BD4F4B000041542B43AD
:1029D00049504D4F44453D310D0A00003E00000076
:1029E00041542B43495053454E440D0A000000000A
:1029F000014902A000F09EB9042900082B2B2B00EE
:102A000070B505460CA10EA000F094F908B10120A4
:102A100070BD0EA10E48FDF7BBFB04460BA1401C88
:102A2000FDF7B6FB00210170621C0AA12846FFF7E2
:102A3000E3FA002070BD00005354414950000000EB
:102A400041542B43494653520D0A00002200000016
:102A50008C010020257300007FB500F0EBF941A048
:102A6000FFF7BAFAFFF7C4FF44A0FFF7B5FA4FF437
:102A7000FA7402E02046FEF787F9FFF73BFF0028D3
:102A8000F8D147A0FFF7A8FA02E02046FEF77CF94C
:102A900000F0C4F90028F8D102E02046FEF774F9EE
:102AA000FFF770FF0028F8D145A0FFF795FA02E084
:102AB0002046FEF769F9012000F076F90028F7D1E9
:102AC0004AA0FFF789FA02E02046FEF75DF900F020
:102AD00097F90028F8D14FA251A152A0FFF77CFA34
:102AE0004FF47A7502E02846FEF74EF949A14CA052
:102AF00000F000F90028F6D153A0FFF76DFA02E0CC
:102B00002046FEF741F96846FFF77AFF0028F7D123
:102B1000694655A0FFF760FAFFF734FF54A256A1AB
:102B20005A48FFF759FA02E02046FEF72DF950A166
:102B300051A0FFF7F7FE0028F6D155A0FFF74CFA99
:102B400002E02046FEF720F9FFF72AFF0028F8D11F
:102B500058A0FFF741FA61A0FFF73EFA04B0002049
:102B600070BD00000D0A20202020CDCBB3F6CDB8DB
:102B7000B4ABC4A3CABD0D0A000000002020202071
:102B8000312EB2E2CAD445535038323636CAC7B7AE
:102B9000F1B4E6D4DAA3A84154A3A90D0A000000B9
:102BA00020202020322ED6D8C6F445535038323655
:102BB00036A3A841542B525354A3A90D0A00000078
:102BC00020202020332EC9E8D6C3B9A4D7F7C4A348
:102BD000CABDCEAA535441A3A841542B43574D4FCD
:102BE00044453D31A3A90D0A00000000202020200B
:102BF000342EC9E8D6C3B5A5C2B7C1ACBDD3C4A3F2
:102C0000CABDA3A841542B4349504D5558A3A90D03
:102C10000A00000032303532313338383438310070
:102C20004B44000020202020352EC1ACBDD3576975
:102C30004669A3AC53534944A3BA2573A3AC505778
:102C400044A3BA25730D0A0020202020362EBBF1A4
:102C5000C8A14950B5D8D6B7A3A841542B4349467B
:102C60005352A3A9A3BA000025730D0A0D0A000050
:102C700031383833000000006D717474732E68654C
:102C8000636C6F7564732E636F6D00009C34000875
:102C900020202020382EBDF8C8EBCDB8B4ABC4A39B
:102CA000CABDA3A841542B4349504D4F4445A3A945
:102CB0000D0A000020202020D2D1C1ACBDD3C9CF45
:102CC000D4C6B7FECEF1C6F7B2A2BDF8C8EBCDB8F8
:102CD000B4ABC4A3CABDA1A30D0A000020202020CC
:102CE00045535038323636B3F5CABCBBAFCDEAB324
:102CF000C90D0A0000B591B00B46024604A1684612
:102D0000FFF77AF908A1684600F014F811B000BD89
:102D100041542B43574A41503D222573222C2225F2
:102D200073220D0A000000005749464920474F54BE
:102D30002049500070B50E460546FA24FFF7E4FD21
:102D40002846FDF737FA82B2642329460B48FEF77E
:102D5000F9FE0DE000F0AEF838B9084831464830C9
:102D6000FDF716FA08B1002070BD0A20FEF70CF836
:102D7000641EE4B2EED2012070BD000044010020C8
:102D800070B50C460546FFF7BFFD6420FDF7FCFF5C
:102D900022462946BDE870404FF47A730148FEF799
:102DA000D1BE000044010020012805D0022806D031
:102DB000032807D00320704704A105A004E003A165
:102DC00007A001E001A10AA0FFF7B4BF4F4B00002C
:102DD00041542B43574D4F44453D310D0A000000EF
:102DE00041542B43574D4F44453D320D0A000000DE
:102DF00041542B43574D4F44453D330D0A000000CD
:102E0000014902A0FFF796BFFC28000841542B435C
:102E100049504D55583D300D0A000000014902A0AF
:102E2000FFF788BFFC28000841542B5253540D0A69
:102E30000000000070B5064626221B491B48FDF71E
:102E400083F9194DE88C194CE084A86AA062A88D1A
:102E5000A085E88DE085286B2063686B606309229C
:102E600005F1380104F13800FDF76EF995F84100DD
:102E700084F8410095F8420084F84200686C606470
:102E80000B48C4E900060020A0600C21E060C4E902
:102E90000401A061E0612046FEF7CEFC2068C16815
:102EA00041F02001C16070BDB40000204401002049
:102EB000004400400648018831B14288914205D162
:102EC0000021018008467047012070474180FBE7E0
:102ED0002000002013B54FF6FF7301226946024817
:102EE000FEF730FE00981CBD6C000020ADF50C7D97
:102EF000FEF75AF8FEF7F0FEFEF776FEFEF792FEBA
:102F0000FEF7ACFEFEF7C6FE32221B491B48FEF759
:102F1000B7FD1BA0FFF760F84FF4E130FFF79CFD11
:102F20001DA0FFF759F800F065F920A0FFF754F84D
:102F3000234A2449244800F063F8244C4FF40A75CE
:102F400040F6B836294602A8FDF717F9D4E9000182
:102F5000CDE90001D4E902231D4902A8FFF74CF88E
:102F6000002202A91BA000F0B5F93046FDF70CFFC6
:102F700000F01EFAE6E7000038000020FC00002008
:102F800020202020B3F5CABCBBAF455350383236A1
:102F9000362E2E2E0D0A000020202020B3F5CABCAC
:102FA000BBAF4D5154542E2E2E0D0A002020202050
:102FB0004D515454C1ACBDD32E2E2E0D0A0000002D
:102FC0009404002030040020CC03002000000020E6
:102FD0002C340008247379732F38564F52646C7860
:102FE000725A542F74656D7030312F7468696E6732
:102FF0002F70726F70657274792F706F7374000028
:103000002DE9F04790468A468146FDF7D3F80746FA
:103010005046FDF7CFF806464046FDF7CBF86E4C1C
:1030200000211023A180E2680546B8191370A38817
:1030300028445B1CA3801030C31700EB536C2CF0AA
:103040007F03C01AC3B24FEAEC10002802DD00BFB4
:1030500043F08003B4F804C002F80C30A38803F1F5
:103060000103A380E8DCE0689AB24FF0040C8154BD
:10307000A2884FF04D0302F1010292B2A28000F843
:1030800002C0A28802F1010292B2A2808354A288F7
:103090004FF0510302F1010292B2A2808354A28840
:1030A0004FF0540302F1010292B2A2808354A2882D
:1030B00002F1010292B2A2808354A2884FF0C203AF
:1030C00002F1010292B2A28000F802C0A28802F1CD
:1030D000010292B2A2808354A28802F1010292B24C
:1030E000A2808154A1884FF0640201F1010189B2EC
:1030F000A1804254A1884FEA172201F1010189B24F
:10310000A1804254A1883A4601F1010189B2A1800F
:103110004754A18801F1010189B2A18008444946C0
:10312000FDF712F8A088002E384481B2A18013DD8B
:10313000E068320A4254A1883246491C89B2A18013
:103140004654A188491C89B2A18008445146FCF725
:10315000FBFFA0883044A080002D14DDA288E06829
:10316000290A8154A1882A46491C89B2A180455464
:10317000A188491C89B2A18008444146FCF7E4FFBC
:10318000A0882844A0806188A068FCF7F6FFA18889
:10319000E06800F00BF900254FF4FA763046FDF7B1
:1031A000F3FDFFF787FE10B9A068FFF7DBFBA0680F
:1031B0000178202904D14178022901D1807830B1E9
:1031C0006D1CEDB20A2DE9D30120BDE8F08703A004
:1031D000FEF702FF0020F8E7240000207375636308
:1031E000657373210D0A00000221014800F0DEB86A
:1031F000E633000870B511A218A11AA000F03CF83F
:103200001C4A1B484FF4007490605480A0F5007570
:10321000D56094802146FCF7B0FF21462846FCF794
:10322000ACFFFFF7E1FF6420FDF7AEFDFFF7DCFF29
:10323000BDE870406420FDF7A7BD000054485870F9
:10324000537676577A7965644A77536F485773692E
:1032500048435942783741253344000074656D7006
:103260003031000038564F52646C78725A54000066
:103270005C0700202400002038B50C4605460A46AD
:1032800009A10A48FEF7B8FE08482A4606A164309C
:10329000FEF7B2FE06A00090044823462A460C49D9
:1032A000C830FEF7A9FE38BD25730000CC0300200E
:1032B00054485870537676577A7965644A77536FD5
:1032C00048577369484359427837412533440000D1
:1032D000E43400082DE9F047174689468046FCF79C
:1032E00069FF05464846FCF765FF2F4C064600205F
:1032F000A08005EB06000FB1001D00E0801CE16816
:1033000030220A70A288521CA280C21700EB5263BE
:1033100023F07F02801AC2B2D811002802DD00BF5C
:1033200042F08002A388CA54A28802F10102A2805E
:10333000EBDCE06892B24FEA15218154A1882A465D
:1033400001F1010189B2A1804554A18801F1010177
:1033500089B2A18008444146FCF7F6FEA0882844C3
:1033600080B2A0807FB11049E2684B781354A088E6
:10337000401C80B2A08009781154A088401CA08015
:103380002088401C2080A188E068324608444946D5
:10339000FCF7DAFEA088304481B2A180E06800F03A
:1033A00005F82079BDE8F08724000020FFF7E8BC8D
:1033B00002210148FFF7FABFE833000801020203C7
:1033C0000405060708090A0B0C0D0E0F101000006B
:1033D00000000000000001020304060708090000C5
:1033E000000001020304E000C000DDDDDDDDDCBB28
:1033F000BBDDDDDDDDDDDDDDDDDD9888888888880D
:103400008888777777777788888885555556666670
:10341000666666666666666888888333333222220B
:103420002222222222222228888D00007B22696407
:10343000223A22313233222C2276657273696F6E02
:10344000223A22312E30222C22706172616D732259
:103450003A7B2243757272656E7454656D70657245
:103460006174757265223A7B2276616C7565223AC9
:1034700025642E25647D2C2243757272656E744816
:10348000756D6964697479223A7B2276616C756521
:10349000223A25642E25647D7D7D00002020202099
:1034A000372EC1ACBDD3D4C6B7FECEF1C6F7A3A8A4
:1034B00041542B4349505354415254A3A9A3AC0D3A
:1034C0000A7365727665725F6970A3BA2573A3ACDF
:1034D0007365727665725F706F7274A3BA25730D2F
:1034E0000A00000076657273696F6E3D32303138C4
:1034F0002D31302D3331267265733D70726F6475D6
:103500006374732525324625732525324664657616
:10351000696365732525324625732665743D32300F
:103520003137383831373736266D6574686F643D0A
:1035300073686131267369676E3D25730000000072
:10354000603500080000002038000000402000081E
:103550009835000838000020280D00005020000891
:10356000000000000000000000000000000000005B
:1035700001000000100000000000000000127A00AE
:10358000000000000000000000000000000000003B
:08359000000000000000000033
:04000005080000ED02
:00000001FF
