:020000040800F2
:10000000F01400209D010008531D0008911B0008FA
:10001000511D00083D030008C52200080000000033
:1000200000000000000000000000000005010008C2
:10003000E504000800000000490100080D1F000849
:10004000B7010008B7010008B7010008B7010008B0
:10005000B7010008B7010008B7010008B7010008A0
:10006000B7010008B7010008B7010008B701000890
:10007000B7010008B7010008B7010008B701000880
:10008000B7010008B7010008B7010008B701000870
:10009000B7010008B7010008B7010008B701000860
:1000A000B7010008B7010008B7010008B701000850
:1000B000B51F0008B7010008B7010008B701000824
:1000C000B7010008B7010008B7010008B701000830
:1000D000B7010008B9220008B7010008B7010008FD
:1000E000B7010008B7010008B7010008DFF810D019
:1000F00000F0A8F80048004795260008AFF30080FC
:10010000F0140020224B19680868B0E8F00F80F363
:100110000988BFF36F8F4FF0000080F311884EF015
:100120000D0E70470000000006480068006880F36C
:10013000088862B661B6BFF34F8FBFF36F8F00DFE1
:1001400000BF00BF08ED00E0EFF30980BFF36F8F41
:100150000F4B1A6820E9F00F106008B54FF0A000AF
:1001600080F31188BFF34F8FBFF36F8F02F03CFE17
:100170004FF0000080F31188BDE808401968086856
:10018000B0E8F00F80F30988BFF36F8F704700BFAE
:1001900028000020EFF305807047000006488047E4
:1001A00006480047FEE7FEE7FEE7FEE7FEE7FEE75C
:1001B000FEE7FEE7FEE7FEE7B11F0008ED000008DE
:1001C00040EA01039B0703D009E008C9121F08C0D9
:1001D000042AFAD203E011F8013B00F8013B521E59
:1001E000F9D27047D2B201E000F8012B491EFBD2D0
:1001F00070470022F6E710B513460A460446194632
:10020000FFF7F0FF204610BD421C10F8011B00292B
:10021000FBD1801A704730B50B46014600202022E2
:10022000012409E021FA02F59D4205D303FA02F503
:10023000491B04FA02F52844151EA2F10102F1DC63
:1002400030BD0000064C074D06E0E06840F00103B9
:1002500094E8070098471034AC42F6D3FFF74AFF02
:10026000E43100080432000870B504460068816873
:10027000C943C90717D1816821F00101816000F0ED
:100280002BFD05460AE000BF00F026FD401B0228BA
:1002900004D920688068C043C00706D02068806801
:1002A000C043C007F0D0002070BDA06A40F010002D
:1002B000A062E06A40F00100E062012070BD000031
:1002C000F8B500260446009600688168C943C9074E
:1002D0002DD0816841F001018160164816490068FF
:1002E000B0FBF1F000E0401E00900028FBD100F0D0
:1002F000F3FC054616E000BF00F0EEFC401B0228B0
:1003000010D920688068C043C0070BD0A06A40F0B5
:100310001000A062E06A40F00100E06284F824600E
:100320000120F8BD20688068C043C007E4D10020E8
:10033000F8BD00002400002040420F00FEE710B589
:10034000044600F00FF8204602F0C6F9BDE8104060
:10035000AFF3008001224021014800F0B8BC00004A
:100360000008014000224021014800F0B0BC00001C
:100370000008014010B5044600F0FCFE0349B0FB44
:10038000F1F16143491EFDD210BD000000093D009E
:1003900010B52820FFF7EEFF4FF40071034800F07E
:1003A00091FC08B1002010BD012010BD000C0140DF
:1003B0001FB50A4B4FF40072012120B100200092BA
:1003C000CDE9010104E00320CDE90021CDE90210CF
:1003D0006946184600F086FB1FBD0000000C014076
:1003E00070B50D4D4FF400742146284600F06AFCAC
:1003F0000028F9D02820FFF7BDFF2146284600F04D
:1004000061FC002806D02146284600F05BFC00284D
:10041000F9D1012070BD0000000C014070B500242E
:1004200025466006040EFFF7DBFF08B144F0010427
:100430006D1CEDB2082DF4D3204670BD7CB50020B4
:100440000090019000F03AF8FFF7A2FF78B3194C42
:100450004FF400752946204600F034FC0028F9D0FE
:100460002946204600F02EFC0028F9D100246D46D4
:10047000FFF7D4FF2855641CE4B2052CF8D39DF88F
:1004800000409DF801309DF802209DF80310E0180F
:10049000551828449DF80450A84206D10648047017
:1004A00043708270C17001207CBD00207CBDFFE7DD
:1004B0000220FBE7000C01400000002010B50020E6
:1004C000FFF776FF00224FF40071054800F0FFFBB4
:1004D000142000F0F5FABDE810400120FFF768BFD6
:1004E000000C0140704772B6FEE7000070B50025B1
:1004F0002C46104800F0FAF964210E4800F058F933
:1005000018B90C4800F096F805440A4800F04EFA75
:10051000012002F0E1F8641C0A2CEADB0A20B5FB9A
:10052000F0F040F6E441484340F6FF71B0FBF1F0D3
:1005300070BD0000F8020020F8B50024009490F887
:1005400024202546012A12D0012280F824204A685E
:100550001F23072A0DD20668776B521E02EB820218
:1005600093409F430B6893401F43776319E0022039
:10057000F8BD06680D2A0AD2376BD21F02EB820241
:1005800093409F430B6893401F43376309E0F76A2A
:100590000D3A02EB820293409F430B6893401F4346
:1005A000F7620A68072306680A2A0AD3F7680A3A34
:1005B00002EB420293409F438B6893401F43F760D6
:1005C00008E0376902EB420293409F438B689340F7
:1005D0001F4337610A68102A01D0112A20D1124B1B
:1005E00002689A4217D193681B0219D4936843F4A6
:1005F000000393600968102912D10C490C4A09685C
:10060000B1FBF2F101EB8101490000E0491E0091CC
:100610000029FBD104E0816A41F0200181620124BC
:1006200080F824502046F8BD00240140240000201A
:1006300040420F000068C06C704700002DE9F04197
:100640004FF0000704003D467ED0A06A002628B97E
:10065000E66284F82460204600F07EF82046FFF72A
:1006600003FEA16AC90600D420B1A06A40F01000C0
:10067000A06269E0A16A21F4885141F00201A162FF
:100680006268E169237B0A4347EA43010A43A168A0
:100690004FF48077B94209D0012907D05FF00001FB
:1006A00094F814C0BCF1010F02D00AE03946F7E714
:1006B000F3B1A36A43F02003A362E36A43F00103AA
:1006C000E3622368D3F804C02CF4694C4CEA010CB3
:1006D000C3F804C021688B68DFF870C003EA0C031C
:1006E00013438B60A168B9420BD0012909D00CE0FB
:1006F000DFF85CC0A3690CEB43330B4343F40061A8
:10070000DFE7218A0D05A5F580152168CB6A23F462
:1007100070032B43CB62216889680E4B19409142CC
:1007200008D1E662A16A21F0020141F00101A16253
:10073000BDE8F081A06A20F0020040F01000A06245
:10074000E06A40F00100E0620120F1E7FDF7E1FF1F
:1007500000E0FFFFFE0E1FFF00B585B000210091F5
:1007600001910291039100680E49884218D10E4808
:10077000816941F480618161816901F48061049142
:10078000816941F0040181618069694600F00400DB
:1007900004902020009003200190044800F0A2F96A
:1007A00005B000BD002801400010024000080140D3
:1007B0002DE9F84300270D460446009700F08CFA17
:1007C000804620688168C90508D5A06A40F02000ED
:1007D000A06284F824700120BDE8F8834168C9054F
:1007E00003D4C06A10F4700F2AD0022000F044FB3A
:1007F0003B490968B1FBF0F62068036939490B42AF
:100800004FEA61014FEAA1121FD1C3684FEA611C90
:1008100013EA0C0F19D103690B4225D1C0681042AD
:1008200022D1142023E0681C0AD02DB100F054FA24
:10083000A0EB0800A84203D920680068800725D5EE
:10084000206800688007EED52DE003690B4202D1D5
:10085000C168114206D0026923490A4206D1C06824
:10086000084203D1542002E0292000E0FC20464346
:10087000009816E0681C11D02DB100F02DFAA0EB05
:100880000800A8420AD90098B04207D2A06A40F0F6
:100890000400A06284F8247003209DE70098401CA7
:1008A0000090B042E6D321686FF012000860A06AA1
:1008B00040F40070A06220688068C0F342400728BE
:1008C0000CD1207B50B9A06A20F48070A062A06A8D
:1008D000C00403D4A06A40F00100A06200207BE7BE
:1008E00024000020244992244992240070B5044633
:1008F00090F8240001280DD0012084F8240020461F
:10090000FFF7DEFC02004FF0000005D084F8240061
:10091000104670BD022070BDA16A40F201239943C8
:1009200041F48071A1621F4D23681F49AB4218D169
:100930000E6816F4702F14D0A66A46F48016A662CC
:100940000E68760505D5A66A26F4005646F480564C
:10095000A662A66AF6040AD5E66A26F00606E662EC
:1009600006E0A66A26F48016A6625E68E9E7E06201
:1009700084F824006FF00200186020688368C3F3D5
:100980004243072B05D1A84208D1096811F4702F02
:1009900004D0816841F480118160B9E7816841F435
:1009A000A001F9E7002801400424014010B50446E5
:1009B00090F82400012807D0012084F82400204664
:1009C000FFF752FC10B107E0022010BDA16A21F42C
:1009D000885141F00101A162002184F8241010BD6A
:1009E00010B590F821100022022905D0042181635E
:1009F00080F82020012010BD01680B6823F00E0351
:100A00000B6001680B6823F001030B6090F8403025
:100A1000C46B012101FA03F3636080F8211080F8B0
:100A20002020104610BD000010B590F821100024C1
:100A3000022903D00421816301243DE001680A6892
:100A400022F00E020A6001680A6822F001020A60C0
:100A50001A4A0168914201D1012121E0174A14325A
:100A6000914201D110211BE0144A2832914201D158
:100A7000891515E0114A3C32914201D189140FE0E9
:100A80000E4A5032914202D14FF4803108E00B4AB5
:100A90006432914202D14FF4801101E04FF0807135
:100AA000064A083A5160012180F82110002180F89F
:100AB0002010416B01B18847204610BD080002405C
:100AC00070B5044600F008F90546601C02D00448E1
:100AD0000078044400F000F9401BA042FAD370BD36
:100AE000180000202DE9F84FDFF8B8910024A9F193
:100AF000040B23460F2709F1040AABF1040EC9E0E9
:100B00000125A5402A40AA427DD1674ED1F804C0F4
:100B1000ACEB0608B44532D014DCBCF1030F3AD07C
:100B200009DCBCF1000F2AD0BCF1010F1CD0BCF1D4
:100B3000020F31D11DE0BCF1110F17D0BCF1120F23
:100B40002AD119E0B8F5881F19D006DCB8F5803F26
:100B500015D0B8F5801F1FD111E0B8F5001F0ED0D9
:100B6000B8F5041F18D10AE0CB6815E0CB681B1D4F
:100B700012E0CB6808330FE0CB680C330CE08B68D5
:100B80002BB1012B4FF0080303D0456104E004238F
:100B900002E0056100E00023FF2A01D8064601E0DB
:100BA00000F104064FEA840501D9A5F12005D6F825
:100BB000008007FA05FC28EA0C0803FA05F548EA64
:100BC0000508C6F800804D68ED0062D5374DAE6966
:100BD00046F00106AE61AD6924F0030605F001059B
:100BE0000095334D06EB050CDCF80850A607360FD0
:100BF00007FA06F825EA0805DFF8B880404503D172
:100C00004FF0000817E044E0DFF8AC80404502D127
:100C10004FF001080FE0DFF8A480404502D14FF00B
:100C2000020808E0DFF89880404502D14FF0030841
:100C300001E04FF0040808FA06F848EA0508CCF885
:100C400008804D68D9F80060ED024D4601D5164385
:100C500000E096432E604D68DAF80060AD0255461C
:100C600001D5164300E096432E604D68DBF8006026
:100C7000AD035D4601D5164300E096432E604D68F6
:100C8000DEF80060ED03754601D5164300E096439B
:100C90002E60641C0D682A46E5407FF431AFBDE844
:100CA000F88F0000080401400000111000100240FD
:100CB0000000014000080140000C0140001001400C
:100CC000001401408068084000D0012070470AB13C
:100CD000016170470904FBE7014880687047000024
:100CE0001800002002488168027811448160704732
:100CF00018000020074810B5016841F0100101609C
:100D0000032000F0A7F80F2000F006F800F050F8DC
:100D1000002010BD0020024030B50546204887B0B5
:100D2000C16941F00101C161C06906A900F001007B
:100D3000009001A800F0FEF90498B8B100F020FA84
:100D4000400018494FF08042B0FBF1F11648491EAF
:100D50000260416040F2E7320021C0E90321816076
:100D6000816100F0E5FB040003D015E000F008FA13
:100D7000E7E70D4800F00AFC04000DD11C2000F04C
:100D80003BF8102D07D2002229461C2000F042F823
:100D90000648056000E0012407B0204630BD000091
:100DA0000010024040420F00B80300201C00002049
:100DB0000F4808B5816941F001018161816901F045
:100DC00001010091C16941F08051C161C0690022F7
:100DD00000F0805000900F21901E00F01BF8054895
:100DE000416821F0E06141F00071416008BD000000
:100DF0000010024000000140002809DB00F01F0243
:100E0000012191404009800000F1E020C0F800116C
:100E100070470000F0B40E4B1B680C46C3F302236E
:100E2000C3F10705042D00D90425191D072901D296
:100E3000002300E0DB1E012606FA05F1491E2140D1
:100E400099409E40761E16403143F0BC01F056BAE0
:100E50000CED00E0064900F0070208684FF6FF03BA
:100E6000184040EA0220034A10430860704700001F
:100E70000CED00E00000FA0510B501460020234CFF
:100E8000012922D0022939D010291DD16168226898
:100E9000D20119D51E48C1F38342C903805C0AD52B
:100EA00061681B4AC1F34041921E515C194AB2FB72
:100EB000F1F1484301E0184948436168490203D40D
:100EC00040000321B0FBF1F010BD226AC2F3012102
:100ED000012903D1920701D5C80310BD022905D10C
:100EE000626A920702D549F6404010BD0329FCD141
:100EF00021688903F9D54FF2244010BD00F050F964
:100F00006168C1F38131491C4900DBE700100240F0
:100F10009431000800127A0000093D002DE9F843E1
:100F200005460078354CC00754D0E0690026C00063
:100F300008D4E06940F08050E061E069012600F0EB
:100F4000805000902E480168C90512D4016880467F
:100F500041F480710160FFF7BFFE074605E000BF66
:100F6000FFF7BAFEC01B642823D8D8F80000C005DC
:100F7000F6D5206A10F4407021D0A98801F44071A0
:100F800081421CD0206A1F49012220F440700A606F
:100F900000220A602062C00711D0FFF79DFE0746BD
:100FA00041F2883808E000BFFFF796FEC11B4145BB
:100FB00002D90320BDE8F883206A8007F4D5206AAF
:100FC000696820F44070084320621EB1E06920F097
:100FD0008050E0612878800705D56068A96820F412
:100FE0004040084360602878C00605D56068E9681D
:100FF00020F48000084360600020DBE7001002401E
:1010000000700040400442422DE9F0470F460500C1
:1010100061D0434E306800F00700B84209D2306812
:1010200020F0070038433060306800F00700B84215
:1010300051D128683B4C810712D5400703D5606821
:1010400040F4E06060602878000703D5606840F4F1
:10105000605060606068A96820F0F000084360603C
:101060002878C00728D06868012810D02168022895
:1010700010D0890700292EDA616821F003010143AD
:101080006160FFF729FE804641F288390DE0216852
:101090008903EFE78901EDE7FFF71EFEA0EB0801EA
:1010A000494502D90320BDE8F0876068696800F00F
:1010B0000C00B0EB810FEFD1306800F00700B842B0
:1010C0000BD9306820F0070038433060306800F0FA
:1010D0000700B84201D00120E5E72878400705D590
:1010E0006068E96820F4E0600843606028780007E1
:1010F00006D56068296920F4605040EAC10060604C
:1011000000F05EF86168084AC1F30311515CC84001
:101110000649086006480068FFF7FEFD0020C2E7A8
:101120000020024000100240A431000824000020EA
:101130001C0000200F2202600C4A536803F00303D6
:101140004360536803F0F0038360536803F4E06383
:10115000C36052684FF4E06303EAD20202610448BC
:10116000006800F0070008607047000000100240AF
:101170000020024001480068704700002400002061
:101180000448054900684968044AC1F30221515CDA
:10119000C84070472400002000100240B43100080D
:1011A0000448054900684968044AC1F3C221515CFA
:1011B000C84070472400002000100240B4310008ED
:1011C0000E4A51680E4801F00C03042B11D0082B75
:1011D0000FD10C48C1F38343C903C05C0AD55168E1
:1011E000084AC1F34041921E515C054A5043B0FB8E
:1011F000F1F0704704494843704700000010024076
:1012000000127A008231000800093D002DE9F84FF4
:10121000040070D02078C04DC00749D06868C0F382
:101220008100012807D06868C0F38100022809D135
:101230006868C00306D52868800339D5606800282F
:10124000E7D035E06068B0F5803F0BD010B1B0F565
:10125000A02F11D0286820F480302860286820F45E
:10126000802002E0286840F480302860606890B1F7
:10127000FFF732FD06460AE0286840F48020286027
:10128000F0E700BFFFF728FD801B642873D82868AB
:101290008003F7D50CE0FFF71FFD064605E000BF11
:1012A000FFF71AFD801B6428F0D828688003F7D464
:1012B00020789A4E80074FF001094FF0000839D589
:1012C000686810F00C0F07D06868C0F3810002282E
:1012D00009D16868C00306D42868800714D520693E
:1012E000012808D110E02069B0B1C6F80090FFF7DE
:1012F000F3FC074605E00AE1FFF7EEFCC01B0228FD
:10130000C4D828688007F7D52868616920F0F800FC
:1013100040EAC10028600DE0C6F80080FFF7DCFC61
:10132000074604E0FFF7D8FCC01B022823D8286832
:101330008007F7D4207800072CD57948A169D9B166
:10134000C0F80090FFF7C8FC074604E0FFF7C4FCB4
:10135000C01B02280FD8686A8007F7D571484FF480
:10136000FA510068B0FBF1F0009000BF0098411EF8
:101370000091FAD20EE080E0C0F80080FFF7ACFCEC
:10138000074604E0FFF7A8FCC01B022875D8686A6E
:101390008007F7D42078400760D5E8690027C000AF
:1013A00008D4E86940F08050E861E869012700F05E
:1013B000805000905C480168C90513D401688346D9
:1013C00041F480710160FFF787FC824606E000BFB0
:1013D000FFF782FCA0EB0A0064284ED8DBF800007F
:1013E000C005F5D5E06801280AD008B1052813D05A
:1013F000286A20F001002862286A20F0040002E038
:10140000286A40F001002862E06841F2883B98B108
:10141000FFF762FC82460BE0286A40F00400286275
:10142000EEE700BFFFF758FCA0EB0A0159455AD878
:10143000286A8007F6D50CE0FFF74EFC824605E0EF
:10144000FFF74AFCA0EB0A0159454CD8286A8007EF
:10145000F6D41FB1E86920F08050E861E06988B3F4
:101460006968C1F38101022944D00228C6F860806E
:1014700004D0FFF731FC044638E034E0FFF72CFCE1
:10148000074604E0FFF728FCC01B02282BD8286879
:101490008001F7D4206AB0F5803F05D16868A16863
:1014A00020F4003008436860D4E908010843696803
:1014B00021F4741108436860C6F86090FFF70CFCD3
:1014C000044606E025E000BFFFF706FC001B0228EB
:1014D00009D828688001F7D51BE000BFFFF7FCFBA7
:1014E000001B022802D90320BDE8F88F286880017C
:1014F000F4D40EE00128F7D06868226A00F4803145
:10150000914204D1616A00F47010884201D0012038
:10151000EAE70020E8E70000001002400000424235
:101520008004424224000020007000407047704751
:1015300010B5040003D094F83D0010B107E001207D
:1015400010BD002084F83C00204600F01EF8022068
:1015500084F83D00211D206800F032FD012084F850
:10156000460084F83E0084F83F0084F8400084F888
:10157000410084F8420084F8430084F8440084F871
:10158000450084F83D00002010BD704790F83D10E4
:10159000012901D001207047022180F83D10016827
:1015A000CA6842F00102CA6000680B49884208D04C
:1015B000B0F1804F05D00949884202D008498842DD
:1015C00004D1816801F00701062903D0016841F0C8
:1015D0000101016000207047002C01400004004020
:1015E0000008004070472DE9F04104460068C668D5
:1015F00005694FF00007A90713D5B10711D5F91EEA
:10160000016101202077206880698007204602D090
:10161000FFF7E8FF04E000F07EF8204600F07CF8D9
:101620002777680716D5700714D521686FF0040076
:101630000861022020772068806910F4407F2046EE
:1016400002D0FFF7CFFF04E000F065F8204600F07D
:1016500063F82777280715D5300713D521686FF071
:1016600008000861042020772068C06980072046B0
:1016700002D0FFF7B7FF04E000F04DF8204600F07D
:101680004BF82777E80616D5F00614D521686FF0D9
:1016900010000861082020772068C06910F4407F9E
:1016A000204602D0FFF79EFF04E000F034F8204609
:1016B00000F032F82777E80708D0F00706D0216855
:1016C0006FF001000861204600F027F8280608D5D1
:1016D000300606D521686FF0800008612046FFF7CC
:1016E00025FF680608D5700606D521686FF0400012
:1016F0000861204600F018F8A8060AD5B00608D5FB
:1017000021686FF0200008612046BDE8F041FFF736
:101710000EBFBDE8F081704770470068B0F1804FA0
:1017200001D1FFF7DFBA704770477047704700007C
:10173000F8B5016804460868CA684B6910F00F0FD5
:101740004FF0000559D003F0010602F490773743BB
:1017500065D0C10705D0D10503D5616C41F0010109
:101760006164410705D5D90703D0616C41F00201DE
:101770006164810705D5D90703D0616C41F004018C
:101780006164010707D502F02001314303D0616C89
:1017900041F008016164616C00293AD0800604D5EB
:1017A000900602D5204600F076FC20684069616C06
:1017B000C0F38010090700D460B3204600F044FC59
:1017C00020684069400621D52068143050E8001F89
:1017D00021F0400140E80012002AF5D1E06BA8B1E9
:1017E0006D494163E06BFFF71FF9002811D0E06BF2
:1017F000416B01B0BDE8F040084783060FD5930662
:101800000DD52046BDE8F84000F045BC2046FFF766
:101810008DFFF8BD2046FFF789FF6564F8BD266B94
:101820002023012E7CD1C6067AD5D60678D5086845
:101830004868009048694FF00206400640D5E16BC9
:10184000086840680004000CE8D0A28D8242E5D907
:10185000E085886920282DD020680C3050E8001FD2
:1018600021F4807140E80012002AF5D1206814307C
:1018700050E8001F21F0010140E80012002AF5D1D4
:101880002068143050E8001F21F0400140E80012A9
:10189000002AF5D184F84230256320680C3050E8E6
:1018A000001F21F0100140E80012002AF5D1E06B82
:1018B000FFF796F86663A08DE18D401A81B22AE0A9
:1018C000A08DE18D401A81B2E08D0028A6D00029BC
:1018D000A4D022680C3252E8000F20F4907042E845
:1018E0000007002FF5D12068143050E8002F22F0B7
:1018F000010240E80027002FF5D184F8423025632B
:1019000020680C3050E8002F22F0100240E800233D
:10191000002BF5D166632046FFF707FFF8BDFFE710
:1019200005062BD5150629D594F841002128F5D1B7
:10193000A068B0F5805F01D12069B0B1206A411C78
:101940002162216800784860E08C401E0004000C91
:10195000E084E3D12068C16821F08001C160206883
:10196000C16841F04001C160D8E7206A0088C0F337
:1019700008004860206A801C2062E5E74006CDD55B
:101980005006CBD5CA68204622F04002CA6084F8CF
:10199000413000F0FCF8C1E73920000870B50400C0
:1019A00004D094F84100002510B106E0012070BD7C
:1019B00084F84050204600F023F8242084F84100A9
:1019C0002068C16821F40051C160204600F0C4FBCA
:1019D0002068016921F4904101612068416921F08A
:1019E0002A0141612068C16841F40051C160656409
:1019F000202084F8410084F842006563002070BD17
:101A000070B586B000240094019402940394036896
:101A10002B482A4E022103220515B34229D183699E
:101A200043F480438361836903F4804304938369AF
:101A300043F0040383618069224E00F004000490A7
:101A40000802CDE90001039269463046FFF74AF8E3
:101A5000CDE90054694630460294FFF743F800226E
:101A600005212520FFF7D6F92520FFF7C5F906B097
:101A700070BD154EB342FAD1C36943F48023C361EC
:101A8000C36903F480230493836943F008038361EB
:101A90008069CDE9005100F00800CDE903200B4D2D
:101AA00069462846FFF71EF8E814CDE900046946A8
:101AB00028460294FFF716F8D9E7000000380140E5
:101AC000001002400008014000480040000C0140A6
:101AD00090F84230202B01D00220704721B11AB17A
:101AE0000023036300F094BB0120704770472DE989
:101AF000F843044690F84100984616460D462028C3
:101B000002D00220BDE8F88385B17EB10020606478
:101B1000212084F84100FFF7DFF8A6848146E6849F
:101B2000A0682027B0F5805F02D003E00120E9E73C
:101B3000206910B12E4600250EE000260CE0802121
:101B4000204600F080FBA8B9C6B116F8010B216849
:101B50004860E08C401EE084E08C4B464FF0000271
:101B6000CDF800800028EAD14FF04001204600F077
:101B70006AFB40B184F841700320C3E735F8020BDB
:101B8000C0F30800E3E784F841700020BAE770472B
:101B9000FEE700003EB50024114800940194029431
:101BA0000E498460016004730475012505614FF4DA
:101BB00060214460C161FEF741FD08B1FEF793FC6E
:101BC0000520CDE90005694602940548FEF7B4FCFE
:101BD000002801D0FEF787FC3EBD00000028014030
:101BE000F802002010B596B01C2211496846FEF795
:101BF000E7FA0021684600F07BFD0E4C0C491C22E0
:101C000060601C3107A8FEF7DBFA002107A800F08E
:101C10006FFD0749A0601C2238310EA8FEF7D0FAEC
:101C200000210EA800F064FDE06016B010BD0000B9
:101C30002C310008080000202DE9F04186B0002476
:101C400024480094019402940394816941F0200196
:101C50008161816901F020010491816941F00401F1
:101C60008161816901F004010491816941F00801F9
:101C700081618069184F00F0080004900122402122
:101C80003846FFF724F80122DFF85080560231462B
:101C90004046FFF71CF81220CDE90004694638469B
:101CA0000294FEF71FFF40200125CDE90005022028
:101CB000CDE9024069463846FEF714FF0320CDE91E
:101CC0000250CDE9006569464046FEF70BFF06B0BD
:101CD000BDE8F0810010024000080140000C014006
:101CE0000C4810B50A4901604FF4165141600021BB
:101CF00081600C22C160C0E904128161C161FFF7FB
:101D00004DFE002803D0BDE81040FEF7ECBB10BD2F
:101D100000380140280300200C4810B50A49016032
:101D20004FF416514160002181600C22C160C0E96E
:101D300004128161C161FFF731FE002803D0BDE8C4
:101D40001040FEF7D0BB10BD0048004070030020DB
:101D5000FEE7FEE798B04FF47A7000F0BDFC16A3E2
:101D60000DF14C0C0FCB8CE80F0044F620644FF4BF
:101D7000FA6500BFFEF762FB01280CD013A8FEF73E
:101D800043FA82B2234613A90F48FFF7B0FE284654
:101D900000F0A2FCEEE70D494878CB788A788DE810
:101DA0000D000B780AA2402103A800F08DFA82B240
:101DB000234603A9E8E70000444854313120657206
:101DC000726F7220210D0A007003002000000020B5
:101DD000543A25642E25642C483A25642E25640D3A
:101DE0000A0000000EB500250095019540F2FD5750
:101DF0004FF4FA79134E4FF0010844F6206A4FF47D
:101E00007A7B0295FEF772FB0446B84204D2B570A5
:101E10004846FEF794FA01E086F8028023460AA2BB
:101E20000A21684600F050FA6846FEF7EDF982B2E2
:101E3000534669460648FFF75AFE584600F04CFCE8
:101E4000E0E70000080000204C3A25640D0A00007D
:101E50007003002086B014216846FEF7CAF9234EAD
:101E6000234C44F6206702213046FEF72BFF05463F
:101E7000207885420BD04DB9642000F02DFC4FF442
:101E8000FA6308221BA11E48FFF731FE25701021BE
:101E90003046FEF717FF012813D00023637019A204
:101EA0001421684600F010FA6846FEF7ADF982B2D8
:101EB0003B4669461248FFF71AFE642000F00CFC0E
:101EC000D1E7012363700FA21421684600F0FCF9EA
:101ED0006846FEF799F982B23B4669460848FFF723
:101EE00006FE4FF47A70FEF72AFAE6E70008014092
:101EF00008000020563A646F776E0D0A000000005B
:101F000070030020503A25640D0A000010B5A0208F
:101F100080F31188BFF34F8FBFF36F8F01F03EF84E
:101F200018B104494FF080500860002080F31188F8
:101F300010BD000004ED00E030B593B028216846E4
:101F4000FEF757F914210AA8FEF753F900250120DE
:101F50000F9510951195010412958DE823000490BA
:101F60004FF4E010CDE90810022407946846FFF70B
:101F70004DF908B172B6FEE70AA90F2081E83100D9
:101F80004FF48060CDE90D0502210AA8FFF73CF867
:101F900008B172B6FEE74FF4004011900F940FA8FD
:101FA000FEF7BCFF002801D072B6FEE713B030BDCB
:101FB000704700000148FFF716BB0000B80300207F
:101FC000F0B50268194B1A4C1A4D4FF080479842F1
:101FD00005D0B84203D0A04201D0A84203D122F0DC
:101FE00070064A683243984205D0B84203D0A042F6
:101FF00001D0A84203D122F44074CA6822434C693C
:1020000022F08002224302608A68C2620A68826209
:10201000984201D109690163012141610169C90740
:1020200003D0016921F001010161F0BD002C0140E4
:10203000000400400008004010B5406A0021C1853E
:10204000C184FFF773FB10BD01680C3151E8002F0C
:1020500022F4907241E80023002BF5D1016814317D
:1020600051E8002F22F0010241E80023002BF5D1B6
:10207000016B012909D101680C3151E8002F22F0D0
:10208000100241E80023002BF5D1202180F84210F6
:1020900000210163704708B590F84210222901D051
:1020A000022008BD82684FF480539A4201D1016931
:1020B00021B1816A9A421BD04AB10AE00268816A62
:1020C0005268C2F308020A80816A891C08E002692A
:1020D00072B10268526802F07F020A70816A491C7C
:1020E0008162C18D491E0904090CC18503D01BE022
:1020F00002685268F1E70168CA6822F02002CA60EB
:102100000168CA6822F48072CA6001684A6922F0D4
:1021100001024A61202180F8421000214163026BD4
:10212000012A03D0FFF7E2FC002008BD016301682B
:102130000C3151E8002F22F0100241E80023002B5F
:10214000F5D101680A68D20602D50A68496800918B
:10215000818DFFF7EAFAE7E770B504460068016988
:10216000E26821F44051114301612169A0680843EC
:10217000616908432168CA6841F20C639A430243CB
:10218000CA6020684169A26921F44071114341612C
:102190001E492068884202D1FFF702F801E0FEF7ED
:1021A000EFFF00EBC00101EB0012606864218000CA
:1021B000B2FBF0F3B3FBF1F36FF018067343B2FB1D
:1021C000F0F5B2FBF0F605EB8305322303EB0515C2
:1021D000B5FBF1F5B6FBF1F605F0F00505EB0615DC
:1021E000B2FBF0F6B2FBF0F0B0FBF1F06FF01802CA
:1021F000504306EB800003EB0010B0FBF1F02168C8
:1022000000F00F002844886070BD000000380140D5
:1022100081628285C28500214164222180F84210BA
:10222000016921B10168CA6842F48072CA6001681C
:102230004A6942F001024A610068C16841F0200128
:10224000C160002070472DE9F843984617460D46B7
:102250000446089E24E0701C22D0FEF73DFDA0EB52
:102260000800B0421AD8CEB12068C168490717D516
:10227000802D15D0402D13D00168C94309070FD414
:1022800001680025406800902046FFF7DDFE082029
:10229000606484F840500120BDE8F8830320FBE728
:1022A0002068006835EA000004D00020B842D2D08F
:1022B0000020F1E70120F9E70148FFF739BA0000F3
:1022C00028030020FEE700000FB47CB50C0009AD28
:1022D00001D0611E00E00021CDE90001064B6A46F5
:1022E0002946089800F02AF8002C02D0009A002114
:1022F00011707CBC5DF814FB7F2600080907090EED
:10230000002804DB00F1E02080F80014704700F0A2
:102310000F0000F1E02080F8141D704702E008C8AB
:10232000121F08C1002AFAD170477047002001E04F
:1023300001C1121F002AFBD1704700002DE9FF4F99
:102340008BB088460546002606E025280BD0DDE93F
:102350000D1290476D1C761C28780028F5D10FB01F
:102360003046BDE8F08F0024A146A2460122AE49C6
:1023700000E0044315F8013F203B02FA03F0084255
:10238000F7D128782A2810D06FF02F022878A0F1F2
:102390003001092915D809EB890102EB410144F00C
:1023A000020400EB01096D1CF0E758F8041B5FEA1A
:1023B000010903D544F40054C9F1000944F00204B2
:1023C0006D1C28782E2817D115F8010F44F004044D
:1023D0002A280ED06FF02F022878A0F130010929A9
:1023E0000AD80AEB8A0102EB410100EB010A6D1CDD
:1023F000F2E758F804AB6D1C28786C280FD006DC87
:102400004C2817D068280DD06A2814D104E074280D
:1024100010D07A280FD10DE044F400140AE044F4FF
:10242000801401E044F440146978814202D104F53B
:1024300080146D1C6D1C2878692865D006DC002886
:102440008DD0632827D0642806D15DE06E2808D09F
:1024500073282AD0752877D0DDE90D129047761CB5
:10246000E0E0C4F30250022809D003280DD0D8F8C8
:10247000001004280DD00E6008F10408D2E0D8F84E
:102480000010F217C1E90062F6E7D8F800100E80DC
:10249000F2E70E70F0E718F8041B8DF8001000202A
:1024A0008DF80100EB46012003E058F804BB4FF023
:1024B000FF3061074FF0000701D40AE07F1C574549
:1024C0000DDA8742FADB1BF807100029F6D106E087
:1024D0007F1C8742FCDB1BF807100029F8D1DDE9DF
:1024E0000D23A9EB07008146214600F0B1F83044E6
:1024F000C61904E0DDE90D121BF8010B90477F1EA1
:10250000F8D22146484688E058F8040BC4F302513B
:102510004FF00A0B032900D100B2042900D140B2C8
:10252000002802DA40422D2102E0210505D52B21A9
:102530008DF82410012104E006E0E10710D02021ED
:10254000F6E708AF089113E058F8040BC4F3025102
:102550004FF00A0B032900D180B2042900D1C0B288
:102560000021EEE75946FDF756FE303107F8011D10
:102570000028F7D1ADEB070000F1200B600702D572
:1025800024F4803401E04FF0010ADA4502DDAAEBC1
:102590000B0000E00020824600EB0B01089801448C
:1025A000A9EB01000A90E00306D4DDE90D232146E2
:1025B0000A9800F04DF806444FF0000908E009A918
:1025C00011F80900DDE90D12904709F10109761CA7
:1025D00008998945F3DBE0030CD5DDE90D2321469D
:1025E0000A9800F035F8064404E0DDE90D123020C9
:1025F0009047761CBAF10001AAF1010AF5DC05E06A
:10260000DDE90D1217F8010B9047761CBBF10001B4
:10261000ABF1010BF4DC0A982146DDE90D2300F053
:1026200005F806446D1C97E6092801002DE9F041E4
:10263000044600251E461746880404D405E03946A2
:102640002020B0476D1C641EF9D52846BDE8F081F6
:102650002DE9F041044600251E469046C80301D5E9
:10266000302700E02027880404D505E0414638469D
:10267000B0476D1C641EF9D52846BDE8F0814A6854
:10268000002A06D00A68531C0B6010704868401E70
:1026900048607047FEF72EFBFFF74EFCFFF7CCFAC1
:1026A000FFF71EFBFFF738FBFFF774FA142205490A
:1026B0000548FFF70DFAFDF74DFEFFF793FA00F01E
:1026C00012F8FEE7900000202803002001460020B9
:1026D000842900D0C81C704710B500B9012000F053
:1026E0001FFB002010BD10B500F040FB002010BD06
:1026F0007FB50D4604464169B0F9080081B1A16972
:1027000071B1FFF7E3FFD4E905128DE80700D4E9C2
:1027100000102B46226900F016FC039004B070BD37
:10272000FFF7D4FF03A9CDE90001208A2B4682B22E
:10273000D4E9001000F0DAFB012801D00020EDE719
:102740000398EBE72DE9F041184C0F460546E66883
:102750002068001D00F01CFA38B9206890F82C1091
:1027600001208840216981432161681C07D137B16C
:102770002168BDE8F0410E48091D00F04DBA2068FF
:102780003544B5424560216805D2A06BBDE8F041F3
:10279000091D00F029BA606B091D00F025FAA06A36
:1027A000854200D2A562BDE8F0810000280000202B
:1027B000DC0400202DE9F041054600F039FA2E4CEA
:1027C000A068401CA06020682C4F10B1606940B325
:1027D0002DE02560A068012829D1002606EB86009F
:1027E00007EB800000F0F2F9761C072EF6D32348A1
:1027F0008C3000F0EBF92148A03000F0E7F91F48D9
:10280000B43000F0E3F91D48C83000F0DFF91B4890
:10281000DC3000F0DBF919488C3060631430A063C1
:1028200005E02068E96AC06A884200D82560606ACD
:10283000401C6062E96A01202269884010432061DF
:1028400001EB810007EB8000291D00F0E5F900F0A5
:102850000FFA606900280CD02068E96AC06A8842D3
:1028600007D207494FF080500860BFF34F8FBFF386
:102870006F8FBDE8F08100002800002000040020D8
:1028800004ED00E010B5044690F8510058B101285D
:102890000CD002280FD0A02080F31188BFF34F8FF7
:1028A000BFF36F8FFEE7206B00F0F6F92046BDE81E
:1028B000104000F0F1B910BD10484FF440614207DC
:1028C00006D0C01D0D4920F00700411AC1F5406136
:1028D0000B4A00230144C2E900030839183A21F0E9
:1028E000070111604B600B600B1AC0E90013936085
:1028F0004FF000405360506170470000F00400202A
:102900007C000020144E154CA6F1C8074FF08058EB
:10291000DFF84C9012E000BF00F08AF9F068C5685B
:10292000281D00F035F9A068401EA0606068401EB8
:10293000606000F09DF92846FFF7A4FF606800285A
:10294000EAD138680128F9D9C9F80080BFF34F8F60
:10295000BFF36F8FF2E70000C804002028000020BA
:1029600004ED00E02DE9F0479A46DDE9098481464F
:102970006FF00303206B03EB82021044089E20F0EB
:102980000707780707D0A02080F31188BFF34F8F87
:10299000BFF36F8FFEE7002561B1002023180A5CAA
:1029A00083F834200A5C12B1401C1028F6D384F856
:1029B000435001E084F83450072E00D30626E66227
:1029C000C4E91165201D00F00CF904F1180000F0B5
:1029D00008F92461C6F107006462A061E56484F827
:1029E000505052464946384600F0C0F82060B8F1D1
:1029F000000F01D0C8F80040BDE8F08730B511499C
:102A000000E011460A688242FBD34B685C1884429E
:102A100003D1406818444860084643681C18944233
:102A200009D1084C183C2468A24209D052681A44C3
:102A300042600A6812680260814200D0086030BDBE
:102A40000460F9E77C0000200648416B096829B161
:102A5000416BC968C9684968816270474FF0FF31AE
:102A6000FAE700002800002008484068401C4FF0AA
:102A7000A00080F3118804D0BFF34F8FBFF36F8F96
:102A8000FEE7BFF34F8FBFF36F8FFEE78400002098
:102A90002DE9F0410546002700F09EF9324E3068DE
:102AA00008B9FFF709FF706905424ED1C5B3083573
:102AB00068070ED005F00700C0F10800054468075C
:102AC00007D0A02080F31188BFF34F8FBFF36F8F23
:102AD000FEE72DB37068854237D823481830014689
:102AE0000C6801E020460C466168A94202D22168C8
:102AF0000029F7D131688C4227D00768216801602E
:102B000060680837411B10290FD96019420708D0A7
:102B1000A02080F31188BFF34F8FBFF36F8FFEE7C4
:102B200013E041606560FFF769FF61687068401AF3
:102B30007060B268904200D2B060706901430020BA
:102B4000C4E90001F068401CF06000F08DFA7807DD
:102B500007D0A02080F31188BFF34F8FBFF36F8F92
:102B6000FEE73846BDE8F0816400002010B5031F81
:102B70004FF080741C601B1F21F001011960191FA8
:102B8000024B0B60143940380A6010BD692A0008F6
:102B9000D0E9013201699A60D0E901235A604A689C
:102BA000824201D182684A60002202610868401EA8
:102BB0000860086870470000034B036003F154008D
:102BC0000860802010607047A400002000F1080118
:102BD0004FF0FF32C0E90112C160016100210160C4
:102BE000704700210161704730B50B685A1C02D054
:102BF00000F1080202E0026904E0224654682568F8
:102C00009D42FAD953684B6099608A6051600861AF
:102C10000168491C016030BD42684A6093688B605E
:102C200093685960916008610168491C01607047B0
:102C3000A02080F31188BFF34F8FBFF36F8F0A4935
:102C40004868401C486001280CD10848006810F012
:102C5000FF0F07D0A02080F31188BFF34F8FBFF381
:102C60006F8FFEE7704700008400002004ED00E055
:102C70000849486828B1401E486001D180F3118896
:102C80007047A02080F31188BFF34F8FBFF36F8F81
:102C9000FEE700008400002070B500282AD0164D01
:102CA000A0F1080460686969084207D1A02080F398
:102CB0001188BFF34F8FBFF36F8FFEE722683AB1E1
:102CC000A02080F31188BFF34F8FBFF36F8FFEE713
:102CD0008843606000F080F8606869680844686054
:102CE0002046FFF78BFE2869401C2861BDE8704034
:102CF00000F0BAB970BD0000640000204FF0E02081
:102D000000210161816105494FF47A720968B1FBC4
:102D1000F2F1491E41610721016170472400002042
:102D200010B5020014D00F48006B38B1A02080F31A
:102D30001188BFF34F8FBFF36F8FFEE700F04CF8A1
:102D400000211046FFF7FEFC00F08EF9002807D1A5
:102D500005494FF080500860BFF34F8FBFF36F8F6E
:102D600010BD00002800002004ED00E010B586B082
:102D70000024039405AA04A903A80494FFF71CFFE8
:102D8000DDE903010094CDE9011000230EA11048F4
:102D9000059A00F0D8F80F490028C86211D0A02089
:102DA00080F31188BFF34F8FBFF36F8F4FF0FF3069
:102DB000886201204861CC6006B0BDE8104000F098
:102DC00041B806B010BD000049444C450000000069
:102DD00005290008280000200248016B491C0163F6
:102DE00070470000280000201448016B11B1012138
:102DF000C16170470021C1610169B1FA81F1C1F17E
:102E00001F0101EB81020E4951F822306BB101EB39
:102E1000820101F108034A6852684A609A4201D16E
:102E200052684A60D16801607047A02080F3118821
:102E3000BFF34F8FBFF36F8FFEE700002800002025
:102E4000000400201CB5264908780190FF20087076
:102E500008788DF800009DF800009DF8002000F033
:102E6000E000904207D0A02080F31188BFF34F8F7D
:102E7000BFF36F8FFEE79DF800001A4C00F0A00032
:102E800020700720A06005E09DF8002052008DF81A
:102E90000020401E9DF800201206F5D4A0600428F2
:102EA00007D0A02080F31188BFF34F8FBFF36F8F3F
:102EB000FEE74FF48060A060019808700A4801683E
:102EC00041F460010160016841F060410160FFF779
:102ED00015FF00206060FDF727F900201CBD0000F1
:102EE00000E400E08400002020ED00E02DE9FF5F19
:102EF0008346DDE90E87994616468A469000FFF71D
:102F0000C7FD05001CD05420FFF7C2FD040014D0FB
:102F10000020256384F85100CDE90240CDE9008707
:102F20004B46324651465846FFF71CFD2046FFF7F8
:102F300041FC012004B0BDE8F09F2846FFF7ACFE3D
:102F40004FF0FF30F6E7F0B585B0DDE90B640A9D80
:102F5000A6B1DCB1542700972663022684F851609D
:102F6000002604AFCDE90246CDE90057FFF7FAFC91
:102F70002046FFF71FFC049805B0F0BDA02080F3A9
:102F80001188BFF34F8FBFF36F8FFEE7A02080F350
:102F90001188BFF34F8FBFF36F8FFEE72DE9F0412C
:102FA0002F4C0026206B28B1A069401CA061304640
:102FB000BDE8F081E5686D1CE56013D1606B0068C9
:102FC00038B1A02080F31188BFF34F8FBFF36F8F0C
:102FD000FEE7606BA16B6163A063206A401C206206
:102FE000FFF732FDA06ADFF87C80854209D3606B71
:102FF0000068A0B1606BC068C7687868854211D26C
:10300000A0622068C06A00EB800158F82100012806
:1030100000D90126E0690028C9D00126C7E74FF092
:10302000FF30EDE7381DFFF7B3FDB86A18B107F1BF
:103030001800FFF7ADFDF96A0120226988401043AE
:10304000206101EB810108EB8100391DFFF7E4FDF0
:10305000F86A2168C96A8842C9D30126C7E7000017
:1030600028000020000400202DE9F0472C4D00240A
:103070002746286B38B1FFF7DBFD286B401E28631D
:10308000286B40B146E0A02080F31188BFF34F8F3A
:10309000BFF36F8FFEE7A968224E0120D1B3A6F1DE
:1030A000B40980463068E8B1F068C46804F11800DB
:1030B000FFF76EFD201DFFF76BFDE06A2A6908FA35
:1030C00000F11143296100EB800109EB8100211D12
:1030D000FFF7A2FDE06A2968C96A8842E2D3C5F811
:1030E0001C80DFE70CB1FFF7AFFCAC6944B146468A
:1030F000FFF754FF00B1EE61641EF9D10020A86112
:10310000E86938B10849012738070860BFF34F8FD5
:10311000BFF36F8FFFF7ACFD3846BDE8F0870000C6
:1031200028000020B404002004ED00E0BC310008B9
:10313000551E000800000000000000008000000094
:103140000000000000000000D8310008E51D000864
:10315000000000000000000000010000000000006E
:1031600000000000CC310008551D0008FFFF0000E2
:10317000000000000001000000000000000000004E
:10318000010202030405060708090A0B0C0D0E0FC5
:103190001010010202030405060708090A0B0C0DB2
:1031A0000E0F1010000000000000000001020304D8
:1031B0000607080900000000010203045669627254
:1031C0006174696F6E5F5049525F540044485431D6
:1031D000315F5461736B00004C696768745F5461C0
:1031E000736B000004320008000000209000000013
:1031F0001C23000894320008900000206014000096
:103200002C23000800000000000000000100000066
:1032100000000000000000000000000001000000AD
:10322000100000000000000000127A000000000002
:10323000000000000000000000000000000000008E
:10324000000000000000000000000000000000007E
:10325000000000000000000000000000000000006E
:10326000000000000000000000000000000000005E
:10327000000000000000000000000000000000004E
:10328000000000000000000000000000AAAAAAAA96
:04329000000000003A
:04000005080000ED02
:00000001FF
